{
  "contractName": "VNFDeployment",
  "abi": [
    {
      "inputs": [],
      "stateMutability": "nonpayable",
      "type": "constructor"
    },
    {
      "anonymous": false,
      "inputs": [
        {
          "indexed": false,
          "internalType": "address",
          "name": "creator",
          "type": "address"
        },
        {
          "indexed": false,
          "internalType": "uint256",
          "name": "deploymentId",
          "type": "uint256"
        },
        {
          "indexed": false,
          "internalType": "string",
          "name": "vnfId",
          "type": "string"
        }
      ],
      "name": "DeleteVNF",
      "type": "event"
    },
    {
      "anonymous": false,
      "inputs": [
        {
          "indexed": false,
          "internalType": "uint256",
          "name": "deploymentId",
          "type": "uint256"
        },
        {
          "indexed": false,
          "internalType": "address",
          "name": "user",
          "type": "address"
        },
        {
          "indexed": false,
          "internalType": "bool",
          "name": "success",
          "type": "bool"
        }
      ],
      "name": "DeletionStatus",
      "type": "event"
    },
    {
      "anonymous": false,
      "inputs": [
        {
          "indexed": false,
          "internalType": "address",
          "name": "creator",
          "type": "address"
        },
        {
          "indexed": false,
          "internalType": "uint256",
          "name": "deploymentId",
          "type": "uint256"
        },
        {
          "indexed": false,
          "internalType": "string",
          "name": "vnfdId",
          "type": "string"
        },
        {
          "indexed": false,
          "internalType": "string",
          "name": "parameters",
          "type": "string"
        }
      ],
      "name": "DeployVNF",
      "type": "event"
    },
    {
      "anonymous": false,
      "inputs": [
        {
          "indexed": false,
          "internalType": "uint256",
          "name": "deploymentId",
          "type": "uint256"
        },
        {
          "indexed": false,
          "internalType": "address",
          "name": "user",
          "type": "address"
        },
        {
          "indexed": false,
          "internalType": "bool",
          "name": "success",
          "type": "bool"
        },
        {
          "indexed": false,
          "internalType": "string",
          "name": "vnfId",
          "type": "string"
        }
      ],
      "name": "DeploymentStatus",
      "type": "event"
    },
    {
      "anonymous": false,
      "inputs": [
        {
          "indexed": false,
          "internalType": "address",
          "name": "user",
          "type": "address"
        },
        {
          "indexed": false,
          "internalType": "string",
          "name": "signedAddress",
          "type": "string"
        }
      ],
      "name": "Register",
      "type": "event"
    },
    {
      "anonymous": false,
      "inputs": [
        {
          "indexed": false,
          "internalType": "address",
          "name": "user",
          "type": "address"
        },
        {
          "indexed": false,
          "internalType": "bool",
          "name": "success",
          "type": "bool"
        }
      ],
      "name": "RegistrationStatus",
      "type": "event"
    },
    {
      "anonymous": false,
      "inputs": [
        {
          "indexed": false,
          "internalType": "address",
          "name": "user",
          "type": "address"
        }
      ],
      "name": "Unregister",
      "type": "event"
    },
    {
      "anonymous": false,
      "inputs": [
        {
          "indexed": false,
          "internalType": "address",
          "name": "user",
          "type": "address"
        },
        {
          "indexed": false,
          "internalType": "bool",
          "name": "success",
          "type": "bool"
        }
      ],
      "name": "UnregistrationStatus",
      "type": "event"
    },
    {
      "inputs": [],
      "name": "backend",
      "outputs": [
        {
          "internalType": "address",
          "name": "",
          "type": "address"
        }
      ],
      "stateMutability": "view",
      "type": "function",
      "constant": true
    },
    {
      "inputs": [],
      "name": "creator",
      "outputs": [
        {
          "internalType": "address",
          "name": "",
          "type": "address"
        }
      ],
      "stateMutability": "view",
      "type": "function",
      "constant": true
    },
    {
      "inputs": [
        {
          "internalType": "address",
          "name": "backendAddress",
          "type": "address"
        }
      ],
      "name": "registerBackend",
      "outputs": [],
      "stateMutability": "nonpayable",
      "type": "function"
    },
    {
      "inputs": [
        {
          "internalType": "string",
          "name": "signedAddress",
          "type": "string"
        }
      ],
      "name": "registerUser",
      "outputs": [],
      "stateMutability": "nonpayable",
      "type": "function"
    },
    {
      "inputs": [
        {
          "internalType": "address",
          "name": "user",
          "type": "address"
        },
        {
          "internalType": "bool",
          "name": "success",
          "type": "bool"
        }
      ],
      "name": "reportRegistration",
      "outputs": [],
      "stateMutability": "nonpayable",
      "type": "function"
    },
    {
      "inputs": [],
      "name": "unregisterUser",
      "outputs": [],
      "stateMutability": "nonpayable",
      "type": "function"
    },
    {
      "inputs": [
        {
          "internalType": "address",
          "name": "user",
          "type": "address"
        },
        {
          "internalType": "bool",
          "name": "success",
          "type": "bool"
        }
      ],
      "name": "reportUnregistration",
      "outputs": [],
      "stateMutability": "nonpayable",
      "type": "function"
    },
    {
      "inputs": [
        {
          "internalType": "string",
          "name": "vnfdId",
          "type": "string"
        },
        {
          "internalType": "string",
          "name": "parameters",
          "type": "string"
        }
      ],
      "name": "deployVNF",
      "outputs": [],
      "stateMutability": "nonpayable",
      "type": "function"
    },
    {
      "inputs": [
        {
          "internalType": "uint256",
          "name": "deploymentId",
          "type": "uint256"
        }
      ],
      "name": "deleteVNF",
      "outputs": [],
      "stateMutability": "nonpayable",
      "type": "function"
    },
    {
      "inputs": [
        {
          "internalType": "uint256",
          "name": "deploymentId",
          "type": "uint256"
        },
        {
          "internalType": "address",
          "name": "user",
          "type": "address"
        },
        {
          "internalType": "bool",
          "name": "success",
          "type": "bool"
        }
      ],
      "name": "reportDeletion",
      "outputs": [],
      "stateMutability": "nonpayable",
      "type": "function"
    },
    {
      "inputs": [
        {
          "internalType": "uint256",
          "name": "deploymentId",
          "type": "uint256"
        },
        {
          "internalType": "address",
          "name": "user",
          "type": "address"
        },
        {
          "internalType": "bool",
          "name": "success",
          "type": "bool"
        },
        {
          "internalType": "string",
          "name": "vnfId",
          "type": "string"
        }
      ],
      "name": "reportDeployment",
      "outputs": [],
      "stateMutability": "nonpayable",
      "type": "function"
    },
    {
      "inputs": [
        {
          "internalType": "address",
          "name": "user",
          "type": "address"
        }
      ],
      "name": "getVnfs",
      "outputs": [
        {
          "components": [
            {
              "internalType": "uint256",
              "name": "deploymentId",
              "type": "uint256"
            },
            {
              "internalType": "string",
              "name": "vnfdId",
              "type": "string"
            },
            {
              "internalType": "string",
              "name": "vnfId",
              "type": "string"
            },
            {
              "internalType": "address",
              "name": "owner",
              "type": "address"
            },
            {
              "internalType": "string",
              "name": "parameters",
              "type": "string"
            },
            {
              "internalType": "bool",
              "name": "isDeployed",
              "type": "bool"
            },
            {
              "internalType": "bool",
              "name": "isDeleted",
              "type": "bool"
            }
          ],
          "internalType": "struct VNFDeployment.VNF[]",
          "name": "",
          "type": "tuple[]"
        }
      ],
      "stateMutability": "view",
      "type": "function",
      "constant": true
    }
  ],
  "bytecode": "0x6080604052600160025534801561001557600080fd5b50336000806101000a81548173ffffffffffffffffffffffffffffffffffffffff021916908373ffffffffffffffffffffffffffffffffffffffff160217905550612683806100656000396000f3fe608060405234801561001057600080fd5b50600436106100b45760003560e01c80635863f2c1116100715780635863f2c11461016757806363f8b49314610183578063704f1b941461019f5780637064782c146101bb57806395dc325c146101d7578063f0723f98146101f3576100b4565b806302d05d3f146100b957806308094a6e146100d7578063099e4133146100f35780631bb71db21461011157806338c525681461011b5780635342a64e1461014b575b600080fd5b6100c161020f565b6040516100ce919061222d565b60405180910390f35b6100f160048036038101906100ec9190611b2d565b610233565b005b6100fb61035f565b604051610108919061222d565b60405180910390f35b610119610385565b005b61013560048036038101906101309190611b04565b6103c4565b6040516101429190612332565b60405180910390f35b61016560048036038101906101609190611c8e565b61076e565b005b610181600480360381019061017c9190611b04565b6109e6565b005b61019d60048036038101906101989190611c3f565b610abe565b005b6101b960048036038101906101b49190611b69565b610b9f565b005b6101d560048036038101906101d09190611b2d565b610be1565b005b6101f160048036038101906101ec9190611baa565b610d0d565b005b61020d60048036038101906102089190611c16565b610e60565b005b60008054906101000a900473ffffffffffffffffffffffffffffffffffffffff1681565b600160009054906101000a900473ffffffffffffffffffffffffffffffffffffffff1673ffffffffffffffffffffffffffffffffffffffff163373ffffffffffffffffffffffffffffffffffffffff16146102c3576040517f08c379a00000000000000000000000000000000000000000000000000000000081526004016102ba90612374565b60405180910390fd5b8015610322576000600360008473ffffffffffffffffffffffffffffffffffffffff1673ffffffffffffffffffffffffffffffffffffffff16815260200190815260200160002060006101000a81548160ff0219169083151502179055505b7fd157878b0c9d54851a1f7a33b636db56bdfd4273756c8e585ef207eddc72bf598282604051610353929190612248565b60405180910390a15050565b600160009054906101000a900473ffffffffffffffffffffffffffffffffffffffff1681565b60003390507f1a9a87235a10fa2f6c7079baa2546a99fac817e63099fe89535f08b9aaa76af7816040516103b9919061222d565b60405180910390a150565b6060600160009054906101000a900473ffffffffffffffffffffffffffffffffffffffff1673ffffffffffffffffffffffffffffffffffffffff163373ffffffffffffffffffffffffffffffffffffffff1614610456576040517f08c379a000000000000000000000000000000000000000000000000000000000815260040161044d90612374565b60405180910390fd5b600460008373ffffffffffffffffffffffffffffffffffffffff1673ffffffffffffffffffffffffffffffffffffffff168152602001908152602001600020805480602002602001604051908101604052809291908181526020016000905b8282101561076357838290600052602060002090600602016040518060e001604052908160008201548152602001600182018054600181600116156101000203166002900480601f01602080910402602001604051908101604052809291908181526020018280546001816001161561010002031660029004801561057b5780601f106105505761010080835404028352916020019161057b565b820191906000526020600020905b81548152906001019060200180831161055e57829003601f168201915b50505050508152602001600282018054600181600116156101000203166002900480601f01602080910402602001604051908101604052809291908181526020018280546001816001161561010002031660029004801561061d5780601f106105f25761010080835404028352916020019161061d565b820191906000526020600020905b81548152906001019060200180831161060057829003601f168201915b505050505081526020016003820160009054906101000a900473ffffffffffffffffffffffffffffffffffffffff1673ffffffffffffffffffffffffffffffffffffffff1673ffffffffffffffffffffffffffffffffffffffff168152602001600482018054600181600116156101000203166002900480601f0160208091040260200160405190810160405280929190818152602001828054600181600116156101000203166002900480156107155780601f106106ea57610100808354040283529160200191610715565b820191906000526020600020905b8154815290600101906020018083116106f857829003601f168201915b505050505081526020016005820160009054906101000a900460ff161515151581526020016005820160019054906101000a900460ff161515151581525050815260200190600101906104b5565b505050509050919050565b600160009054906101000a900473ffffffffffffffffffffffffffffffffffffffff1673ffffffffffffffffffffffffffffffffffffffff163373ffffffffffffffffffffffffffffffffffffffff16146107fe576040517f08c379a00000000000000000000000000000000000000000000000000000000081526004016107f590612374565b60405180910390fd5b600061080a8686611082565b90506000600460008773ffffffffffffffffffffffffffffffffffffffff1673ffffffffffffffffffffffffffffffffffffffff168152602001908152602001600020828154811061085857fe5b906000526020600020906006020160000154116108aa576040517f08c379a00000000000000000000000000000000000000000000000000000000081526004016108a190612394565b60405180910390fd5b8315610994578282600460008873ffffffffffffffffffffffffffffffffffffffff1673ffffffffffffffffffffffffffffffffffffffff16815260200190815260200160002083815481106108fc57fe5b9060005260206000209060060201600201919061091a9291906117e4565b506001600460008773ffffffffffffffffffffffffffffffffffffffff1673ffffffffffffffffffffffffffffffffffffffff168152602001908152602001600020828154811061096757fe5b906000526020600020906006020160050160006101000a81548160ff02191690831515021790555061099f565b61099e8686611203565b5b7f0bbe82e5b55ffeea1c40891b7602e0d70c7f0fcf1f6bab5563be1ebb1a148bff86868686866040516109d695949392919061244b565b60405180910390a1505050505050565b600033905060008054906101000a900473ffffffffffffffffffffffffffffffffffffffff1673ffffffffffffffffffffffffffffffffffffffff168173ffffffffffffffffffffffffffffffffffffffff1614610a79576040517f08c379a0000000000000000000000000000000000000000000000000000000008152600401610a70906123f4565b60405180910390fd5b81600160006101000a81548173ffffffffffffffffffffffffffffffffffffffff021916908373ffffffffffffffffffffffffffffffffffffffff1602179055505050565b600160009054906101000a900473ffffffffffffffffffffffffffffffffffffffff1673ffffffffffffffffffffffffffffffffffffffff163373ffffffffffffffffffffffffffffffffffffffff1614610b4e576040517f08c379a0000000000000000000000000000000000000000000000000000000008152600401610b4590612374565b60405180910390fd5b8015610b5f57610b5e83836115ee565b5b7fb31f9ca49b74bbd5ecf9f3c5b9b16184dc648d95386d9e69e6648d7dfdef0c75838383604051610b9293929190612414565b60405180910390a1505050565b60003390507f6ba0831d2f62ae5cbf7214bcc1d79c5da1d705f12811efda0beaa840006f874e8183604051610bd5929190612271565b60405180910390a15050565b600160009054906101000a900473ffffffffffffffffffffffffffffffffffffffff1673ffffffffffffffffffffffffffffffffffffffff163373ffffffffffffffffffffffffffffffffffffffff1614610c71576040517f08c379a0000000000000000000000000000000000000000000000000000000008152600401610c6890612374565b60405180910390fd5b8015610cd0576001600360008473ffffffffffffffffffffffffffffffffffffffff1673ffffffffffffffffffffffffffffffffffffffff16815260200190815260200160002060006101000a81548160ff0219169083151502179055505b7ff5f6238b96cc8d20d5889fdc6fc0ef2f92516a6bcb88ca80abf0f1fd11d146588282604051610d01929190612248565b60405180910390a15050565b6000339050600360008273ffffffffffffffffffffffffffffffffffffffff1673ffffffffffffffffffffffffffffffffffffffff16815260200190815260200160002060009054906101000a900460ff16610d9e576040517f08c379a0000000000000000000000000000000000000000000000000000000008152600401610d95906123d4565b60405180910390fd5b6000610da8611675565b9050610db2611864565b6040518060e001604052808381526020018681526020016040518060200160405280600081525081526020018473ffffffffffffffffffffffffffffffffffffffff168152602001858152602001600015158152602001600015158152509050610e1c818461168d565b7f42e18ab9740923747e258f264065089b8d113576628b37b0a6ec8c519ab3d5c783838787604051610e5194939291906122a1565b60405180910390a15050505050565b6000339050600360008273ffffffffffffffffffffffffffffffffffffffff1673ffffffffffffffffffffffffffffffffffffffff16815260200190815260200160002060009054906101000a900460ff16610ef1576040517f08c379a0000000000000000000000000000000000000000000000000000000008152600401610ee8906123d4565b60405180910390fd5b6000610efd8383611082565b90508173ffffffffffffffffffffffffffffffffffffffff16600460008473ffffffffffffffffffffffffffffffffffffffff1673ffffffffffffffffffffffffffffffffffffffff1681526020019081526020016000208281548110610f6057fe5b906000526020600020906006020160030160009054906101000a900473ffffffffffffffffffffffffffffffffffffffff1673ffffffffffffffffffffffffffffffffffffffff1614610fe8576040517f08c379a0000000000000000000000000000000000000000000000000000000008152600401610fdf90612354565b60405180910390fd5b7f17e8ffe9c36a5859ca29a221208ef78eea97fa4a256ff8662a57ecfc1f29407a8284600460008673ffffffffffffffffffffffffffffffffffffffff1673ffffffffffffffffffffffffffffffffffffffff168152602001908152602001600020848154811061105557fe5b9060005260206000209060060201600201604051611075939291906122f4565b60405180910390a1505050565b600080600460008473ffffffffffffffffffffffffffffffffffffffff1673ffffffffffffffffffffffffffffffffffffffff16815260200190815260200160002080549050905060005b818110156111c15784600460008673ffffffffffffffffffffffffffffffffffffffff1673ffffffffffffffffffffffffffffffffffffffff168152602001908152602001600020828154811061112057fe5b9060005260206000209060060201600001541480156111a55750600460008573ffffffffffffffffffffffffffffffffffffffff1673ffffffffffffffffffffffffffffffffffffffff168152602001908152602001600020818154811061118457fe5b906000526020600020906006020160050160019054906101000a900460ff16155b156111b45780925050506111fd565b80806001019150506110cd565b506040517f08c379a00000000000000000000000000000000000000000000000000000000081526004016111f4906123b4565b60405180910390fd5b92915050565b6000600460008373ffffffffffffffffffffffffffffffffffffffff1673ffffffffffffffffffffffffffffffffffffffff16815260200190815260200160002080549050905060007fffffffffffffffffffffffffffffffffffffffffffffffffffffffffffffffff905060005b828110156112f25784600460008673ffffffffffffffffffffffffffffffffffffffff1673ffffffffffffffffffffffffffffffffffffffff16815260200190815260200160002082815481106112c557fe5b90600052602060002090600602016000015414156112e5578091506112f2565b8080600101915050611272565b5060008112156113035750506115ea565b6000819050600460008573ffffffffffffffffffffffffffffffffffffffff1673ffffffffffffffffffffffffffffffffffffffff168152602001908152602001600020600184038154811061135557fe5b9060005260206000209060060201600460008673ffffffffffffffffffffffffffffffffffffffff1673ffffffffffffffffffffffffffffffffffffffff16815260200190815260200160002082815481106113ad57fe5b906000526020600020906006020160008201548160000155600182018160010190805460018160011615610100020316600290046113ec9291906118bb565b50600282018160020190805460018160011615610100020316600290046114149291906118bb565b506003820160009054906101000a900473ffffffffffffffffffffffffffffffffffffffff168160030160006101000a81548173ffffffffffffffffffffffffffffffffffffffff021916908373ffffffffffffffffffffffffffffffffffffffff160217905550600482018160040190805460018160011615610100020316600290046114a39291906118bb565b506005820160009054906101000a900460ff168160050160006101000a81548160ff0219169083151502179055506005820160019054906101000a900460ff168160050160016101000a81548160ff021916908315150217905550905050600460008573ffffffffffffffffffffffffffffffffffffffff1673ffffffffffffffffffffffffffffffffffffffff168152602001908152602001600020600184038154811061154e57fe5b90600052602060002090600602016000808201600090556001820160006115759190611942565b6002820160006115859190611942565b6003820160006101000a81549073ffffffffffffffffffffffffffffffffffffffff02191690556004820160006115bc9190611942565b6005820160006101000a81549060ff02191690556005820160016101000a81549060ff021916905550505050505b5050565b60006115fa8383611082565b90506001600460008473ffffffffffffffffffffffffffffffffffffffff1673ffffffffffffffffffffffffffffffffffffffff168152602001908152602001600020828154811061164857fe5b906000526020600020906006020160050160016101000a81548160ff021916908315150217905550505050565b60006002600081548092919060010191905055905090565b600460008273ffffffffffffffffffffffffffffffffffffffff1673ffffffffffffffffffffffffffffffffffffffff16815260200190815260200160002082908060018154018082558091505060019003906000526020600020906006020160009091909190915060008201518160000155602082015181600101908051906020019061171c92919061198a565b50604082015181600201908051906020019061173992919061198a565b5060608201518160030160006101000a81548173ffffffffffffffffffffffffffffffffffffffff021916908373ffffffffffffffffffffffffffffffffffffffff160217905550608082015181600401908051906020019061179d92919061198a565b5060a08201518160050160006101000a81548160ff02191690831515021790555060c08201518160050160016101000a81548160ff02191690831515021790555050505050565b828054600181600116156101000203166002900490600052602060002090601f016020900481019282601f1061182557803560ff1916838001178555611853565b82800160010185558215611853579182015b82811115611852578235825591602001919060010190611837565b5b5090506118609190611a0a565b5090565b6040518060e00160405280600081526020016060815260200160608152602001600073ffffffffffffffffffffffffffffffffffffffff168152602001606081526020016000151581526020016000151581525090565b828054600181600116156101000203166002900490600052602060002090601f016020900481019282601f106118f45780548555611931565b8280016001018555821561193157600052602060002091601f016020900482015b82811115611930578254825591600101919060010190611915565b5b50905061193e9190611a0a565b5090565b50805460018160011615610100020316600290046000825580601f106119685750611987565b601f0160209004906000526020600020908101906119869190611a0a565b5b50565b828054600181600116156101000203166002900490600052602060002090601f016020900481019282601f106119cb57805160ff19168380011785556119f9565b828001600101855582156119f9579182015b828111156119f85782518255916020019190600101906119dd565b5b509050611a069190611a0a565b5090565b5b80821115611a23576000816000905550600101611a0b565b5090565b600081359050611a3681612608565b92915050565b600081359050611a4b8161261f565b92915050565b60008083601f840112611a6357600080fd5b8235905067ffffffffffffffff811115611a7c57600080fd5b602083019150836001820283011115611a9457600080fd5b9250929050565b600082601f830112611aac57600080fd5b8135611abf611aba826124c6565b612499565b91508082526020830160208301858383011115611adb57600080fd5b611ae68382846125b5565b50505092915050565b600081359050611afe81612636565b92915050565b600060208284031215611b1657600080fd5b6000611b2484828501611a27565b91505092915050565b60008060408385031215611b4057600080fd5b6000611b4e85828601611a27565b9250506020611b5f85828601611a3c565b9150509250929050565b600060208284031215611b7b57600080fd5b600082013567ffffffffffffffff811115611b9557600080fd5b611ba184828501611a9b565b91505092915050565b60008060408385031215611bbd57600080fd5b600083013567ffffffffffffffff811115611bd757600080fd5b611be385828601611a9b565b925050602083013567ffffffffffffffff811115611c0057600080fd5b611c0c85828601611a9b565b9150509250929050565b600060208284031215611c2857600080fd5b6000611c3684828501611aef565b91505092915050565b600080600060608486031215611c5457600080fd5b6000611c6286828701611aef565b9350506020611c7386828701611a27565b9250506040611c8486828701611a3c565b9150509250925092565b600080600080600060808688031215611ca657600080fd5b6000611cb488828901611aef565b9550506020611cc588828901611a27565b9450506040611cd688828901611a3c565b935050606086013567ffffffffffffffff811115611cf357600080fd5b611cff88828901611a51565b92509250509295509295909350565b6000611d1a8383612165565b905092915050565b611d2b8161256d565b82525050565b611d3a8161256d565b82525050565b6000611d4b82612517565b611d55818561253a565b935083602082028501611d67856124f2565b8060005b85811015611da35784840389528151611d848582611d0e565b9450611d8f8361252d565b925060208a01995050600181019050611d6b565b50829750879550505050505092915050565b611dbe8161257f565b82525050565b611dcd8161257f565b82525050565b6000611ddf838561255c565b9350611dec8385846125b5565b611df5836125f7565b840190509392505050565b6000611e0b82612522565b611e15818561254b565b9350611e258185602086016125c4565b611e2e816125f7565b840191505092915050565b6000611e4482612522565b611e4e818561255c565b9350611e5e8185602086016125c4565b611e67816125f7565b840191505092915050565b600081546001811660008114611e8f5760018114611eb557611ef9565b607f6002830416611ea0818761255c565b955060ff198316865260208601935050611ef9565b60028204611ec3818761255c565b9550611ece85612502565b60005b82811015611ef057815481890152600182019150602081019050611ed1565b80880195505050505b505092915050565b6000611f0e60338361255c565b91507f564e46206d75737420657869737420616e642063616e206f6e6c79206265206460008301527f656c6574656420627920697473206f776e6572000000000000000000000000006020830152604082019050919050565b6000611f7460328361255c565b91507f4f6e6c7920746865206261636b656e6420697320616c6c6f77656420746f206360008301527f616c6c20746869732066756e6374696f6e2e00000000000000000000000000006020830152604082019050919050565b6000611fda60288361255c565b91507f564e46206d75737420657869737420696e206f7264657220746f20626520616360008301527f746976617465642e0000000000000000000000000000000000000000000000006020830152604082019050919050565b600061204060268361255c565b91507f4e6f20564e4620666f756e6420666f722074686520737065636966696564206160008301527f64647265737300000000000000000000000000000000000000000000000000006020830152604082019050919050565b60006120a660148361255c565b91507f55736572206e6f7420726567697374657265642e0000000000000000000000006000830152602082019050919050565b60006120e6604d8361255c565b91507f4f6e6c79207468652063726561746f72206f66207468697320636f6e7472616360008301527f7420697320616c6c6f77656420746f207265676973746572207468652062616360208301527f6b656e64206163636f756e742e000000000000000000000000000000000000006040830152606082019050919050565b600060e08301600083015161217d600086018261220f565b50602083015184820360208601526121958282611e00565b915050604083015184820360408601526121af8282611e00565b91505060608301516121c46060860182611d22565b50608083015184820360808601526121dc8282611e00565b91505060a08301516121f160a0860182611db5565b5060c083015161220460c0860182611db5565b508091505092915050565b612218816125ab565b82525050565b612227816125ab565b82525050565b60006020820190506122426000830184611d31565b92915050565b600060408201905061225d6000830185611d31565b61226a6020830184611dc4565b9392505050565b60006040820190506122866000830185611d31565b81810360208301526122988184611e39565b90509392505050565b60006080820190506122b66000830187611d31565b6122c3602083018661221e565b81810360408301526122d58185611e39565b905081810360608301526122e98184611e39565b905095945050505050565b60006060820190506123096000830186611d31565b612316602083018561221e565b81810360408301526123288184611e72565b9050949350505050565b6000602082019050818103600083015261234c8184611d40565b905092915050565b6000602082019050818103600083015261236d81611f01565b9050919050565b6000602082019050818103600083015261238d81611f67565b9050919050565b600060208201905081810360008301526123ad81611fcd565b9050919050565b600060208201905081810360008301526123cd81612033565b9050919050565b600060208201905081810360008301526123ed81612099565b9050919050565b6000602082019050818103600083015261240d816120d9565b9050919050565b6000606082019050612429600083018661221e565b6124366020830185611d31565b6124436040830184611dc4565b949350505050565b6000608082019050612460600083018861221e565b61246d6020830187611d31565b61247a6040830186611dc4565b818103606083015261248d818486611dd3565b90509695505050505050565b6000604051905081810181811067ffffffffffffffff821117156124bc57600080fd5b8060405250919050565b600067ffffffffffffffff8211156124dd57600080fd5b601f19601f8301169050602081019050919050565b6000819050602082019050919050565b60008190508160005260206000209050919050565b600081519050919050565b600081519050919050565b6000602082019050919050565b600082825260208201905092915050565b600082825260208201905092915050565b600082825260208201905092915050565b60006125788261258b565b9050919050565b60008115159050919050565b600073ffffffffffffffffffffffffffffffffffffffff82169050919050565b6000819050919050565b82818337600083830152505050565b60005b838110156125e25780820151818401526020810190506125c7565b838111156125f1576000848401525b50505050565b6000601f19601f8301169050919050565b6126118161256d565b811461261c57600080fd5b50565b6126288161257f565b811461263357600080fd5b50565b61263f816125ab565b811461264a57600080fd5b5056fea2646970667358221220c511a0e99f4f8d59b1465e805c37b4f874e896dabe0321158946dacbacf00c1464736f6c634300060c0033",
  "source": "// SPDX-License-Identifier: MIT\npragma solidity >=0.4.22 <0.9.0;\npragma experimental ABIEncoderV2; // needed if we set solc version to ^0.6.0 in truffle-config, included in higher versions by default\n\n// Remark: VNFD templates are not stored in the contract, as this would be very space inefficient.\n// VNFD templates should be created via frontend -> API -> tacker. In the frontend, the VNFD ID will\n// be available to call the deployVNF function on this contract. Also, the correlation IDs (contained\n// in the vnfs mapping) are to be stored by the API, and provided to the frontend. From there, the IDs\n// can be used to call the deleteVNF function on this contract.\ncontract VNFDeployment {\n\n\t/* --- STRUCTS --- */\n\tstruct VNF {\n\t\tuint deploymentId;\n\t\tstring vnfdId;\n\t\tstring vnfId;\n\t\taddress owner;\n\t\tstring parameters;\n\t\tbool isDeployed;\n\t\tbool isDeleted;\n\t}\n\n\t/* --- MEMBERS --- */\n\n\t// creator of the contract\n\taddress public creator;\n\n\t// account of the backend\n\taddress public backend;\n\n\t// VNF id counter\n\tuint private nextDeploymentId = 1;\n\n\t// Contains the registered users\n\tmapping (address => bool) private users;\n\n\t// Keeps track of a registered VNFs, such that only the owner of a VNF can delete it.\n\t// The id used here must be stored by the event listening agent, such that it can correlate the\n\t// ids with tacker's ids.\n\tmapping (address => VNF[]) private vnfs;\n\n\t/* --- CONSTRUCTOR --- */\n\tconstructor() public {\n\t\tcreator = msg.sender;\n\t}\n\n\t/* --- EVENTS --- */\n\n\t// Event which signals to backend to register a user. The signed address enabled the backend to\n\t// verify if the registering user is who he claims to be.\n\t/// @param user address of the user to be registered.\n\t/// @param signedAddress signature of the user's address, must be checked by the backend\n\tevent Register(address user, string signedAddress);\n\n\t// Event which signals to the backend to unregister a user\n\t/// @param user address of the registered user.\n\tevent Unregister(address user);\n\n\t// Event which signals to the frontend that a user has been registered.\n\t/// @param user address of the user that has been registered.\n\t/// @param success Indicates whether the registration of the user was successful.\n\tevent RegistrationStatus(address user, bool success);\n\n\t// Event which signals to the frontend that a user has been unregistered.\n\t/// @param user address of the user that has been unregistered.\n\t/// @param success Indicates whether the unregistration of the user was successful.\n\tevent UnregistrationStatus(address user, bool success);\n\n\t// Event which signals to the backend to deploy a VNF according to the specified VNFD.\n\t/// @param creator address of the user triggering the VNF deployment\n\t/// @param deploymentId VNF identifier as specified in this contract.\n\t/// @param vnfdId identifier of the VNF descriptor (VNFD), which is\n\t/// the template to be used to create a VNF instance (obtained from tacker).\n\t/// @param parameters instantiation parameters according to the VNFD.\n\tevent DeployVNF(address creator, uint deploymentId, string vnfdId, string parameters);\n\n\t// Event which signals the deletion of a VNF to the backend.\n\t// Must be called by the same user that triggered the VNF deployment.\n\t/// @param creator address of the user triggering the VNF deletion.\n\t/// @param deploymentId VNF identifier as specified in this contract.\n\t/// @param vnfId VNF identifier as specified by the backend.\n\tevent DeleteVNF(address creator, uint deploymentId, string vnfId);\n\n\t// Event which signals the VNF's deployment status to the frontend.\n\t/// @param deploymentId VNF identifier as specified in this contract.\n\t/// @param user User owning the VNF\n\t/// @param success Indicates whether the creation of a VNF was successful.\n\t/// @param vnfId VNF identifier specified by the backend.\n\tevent DeploymentStatus(uint deploymentId, address user, bool success, string vnfId);\n\n\t// Event which signals the status of a VNF deletion to the frontend.\n\t/// @param deploymentId VNF identifier as specified in this contract.\n\t/// @param user User owning the VNF\n\t/// @param success Indicates whether the deletion of the VNF was successful.\n\tevent DeletionStatus(uint deploymentId, address user, bool success);\n\n\t/* --- PUBLIC FUNCTIONS --- */\n\n\t/// Allows the creator of this contract to register the backend account, which is needed for confirming VNF\n\t/// instantiation.\n\t/// @param backendAddress Account address of the backend\n\tfunction registerBackend(address backendAddress) public {\n\t\taddress user = msg.sender;\n\n\t\trequire(user == creator, \"Only the creator of this contract is allowed to register the backend account.\");\n\n\t\tbackend = backendAddress;\n\t}\n\n\t// Registers the sender of a transaction as a user\n\t/// @param signedAddress signature of the user's address\n\tfunction registerUser(string memory signedAddress) public {\n\t\taddress user = msg.sender;\n\n\t\temit Register(user, signedAddress);\n\t}\n\n\t// Enables the backend to signal the status of user registration.\n\t/// @param user User to be registered.\n\t/// @param success Indicates whether the user was registered correctly.\n\tfunction reportRegistration(address user, bool success) public {\n\t\trequire(msg.sender == backend, \"Only the backend is allowed to call this function.\");\n\n\t\tif(success){\n\t\t\tusers[user] = true;\n\t\t}\n\n\t\temit RegistrationStatus(user, success);\n\t}\n\n\t// Unregisters the sender of a transaction as a user\n\tfunction unregisterUser() public {\n\t\taddress user = msg.sender;\n\n\t\temit Unregister(user);\n\t}\n\n\t// Enables the backend to signal the status of user unregistration.\n\t/// @param user User to be unregistered\n\t/// @param success Indicates whether the user was unregistered correctly.\n\tfunction reportUnregistration(address user, bool success) public {\n\t\trequire(msg.sender == backend, \"Only the backend is allowed to call this function.\");\n\n\t\tif(success){\n\t\t\tusers[user] = false; // soft delete can be used to disable malicious users, maybe use separate delete function to ban users\n\t\t}\n\n\t\temit UnregistrationStatus(user, success);\n\t}\n\n\t// Deploys a VNF by emitting a deployment event.\n\t/// @param vnfdId identifier of the VNF descriptor (VNFD), which is\n\t/// the template to be used to create a VNF instance.\n\t/// @param parameters instantiation parameters according to the VNFD template.\n\tfunction deployVNF(string memory vnfdId, string memory parameters) public {\n\t\taddress user = msg.sender;\n\n\t\trequire(users[user], \"User not registered.\");\n\n\t\tuint deploymentId = createDeploymentId();\n\n\t\tVNF memory vnf = VNF(deploymentId, vnfdId, \"\", user, parameters, false, false);\n\n\t\taddVnf(vnf, user);\n\n\t\temit DeployVNF(user, deploymentId, vnfdId, parameters);\n\t}\n\n\t// Deletes a VNF by emitting a deletion event.\n\t/// @param deploymentId identifier of the VNF instance to be terminated.\n\tfunction deleteVNF(uint deploymentId) public {\n\t\taddress user = msg.sender;\n\n\t\trequire(users[user], \"User not registered.\");\n\n\t\tuint index = findVnfIndex(deploymentId, user);\n\n\t\trequire(vnfs[user][index].owner == user, \"VNF must exist and can only be deleted by its owner\");\n\n\t\temit DeleteVNF(user, deploymentId, vnfs[user][index].vnfId);\n\t}\n\n\n\t// Enables the backend to signal the status of VNF deletion.\n\t/// @param deploymentId VNF identifier as specified in this contract.\n\t/// @param user User owning the VNF\n\t/// @param success Indicates whether the VNF was instantiated correctly.\n\tfunction reportDeletion(uint deploymentId, address user, bool success) public {\n\t\trequire(msg.sender == backend, \"Only the backend is allowed to call this function.\");\n\n\t\tif(success){\n\t\t\tremoveVnf(deploymentId, user);\n\t\t}\n\n\t\temit DeletionStatus(deploymentId, user, success);\n\t}\n\n\t// Enables the backend to signal the status of VNF instantiation\n\t// by handing over the VNF resource identifier of the backend.\n\t/// @param deploymentId VNF identifier as specified in this contract.\n\t/// @param user User owning the VNF\n\t/// @param success Indicates whether the VNF was instantiated correctly.\n\t/// @param vnfId VNF identifier specified by the backend.\n\tfunction reportDeployment(uint deploymentId, address user, bool success, string calldata vnfId) external {\n\t\trequire(msg.sender == backend, \"Only the backend is allowed to call this function.\");\n\n\t\tuint index = findVnfIndex(deploymentId, user);\n\n\t\trequire(vnfs[user][index].deploymentId > 0, \"VNF must exist in order to be activated.\");\n\n\t\tif(success){\n\t\t\t// add vnfId to existing VNF record\n\t\t\tvnfs[user][index].vnfId = vnfId;\n\t\t\tvnfs[user][index].isDeployed = true;\n\t\t} else {\n\t\t\t// remove vnfId from registered VNF list\n\t\t\tremoveVnfHard(deploymentId, user);\n\t\t}\n\n\t\temit DeploymentStatus(deploymentId, user, success, vnfId);\n\t}\n\n\t/// Returns all the VNFs of the calling user\n\tfunction getVnfs(address user) public view returns (VNF[] memory) {\n\t\trequire(msg.sender == backend, \"Only the backend is allowed to call this function.\");\n\n\t\treturn vnfs[user];\n\t}\n\n\t/* --- PRIVATE FUNCTIONS --- */\n\n\t// Creates a new VNF id for keeping track of VNF instantiations\n\tfunction createDeploymentId() private returns (uint) {\n\t\treturn nextDeploymentId++;\n\t}\n\n\t// Returns the VNF index from the vnf array using its ID\n\t// Reverts in case nothing is found\n\t/// @param deploymentId VNF identifier as specified in this contract.\n\t/// @param owner User owning the VNF.\n\tfunction findVnfIndex(uint deploymentId, address owner) private view returns (uint){\n\t\tuint length = vnfs[owner].length;\n\n\t\tfor(uint i = 0; i < length; i++){\n\t\t\tif(vnfs[owner][i].deploymentId == deploymentId && !vnfs[owner][i].isDeleted){\n\t\t\t\treturn i;\n\t\t\t}\n\t\t}\n\n\t\trevert(\"No VNF found for the specified address\");\n\t}\n\n\t// Helper function to manage the vnfs array (add)\n\t/// @param vnf VNF to be added.\n\t/// @param owner User owning the VNF.\n\tfunction addVnf(VNF memory vnf, address owner) private {\n\t\tvnfs[owner].push(vnf);\n\t}\n\n\t// Helper function to manage the vnfs array (delete)\n\t/// @param deploymentId VNF identifier as specified in this contract.\n\t/// @param owner User owning the VNF.\n\tfunction removeVnf(uint deploymentId, address owner) private {\n\t\tuint index = findVnfIndex(deploymentId, owner);\n\n\t\tvnfs[owner][index].isDeleted = true;\n\t}\n\n\t/// Helper function to manage the vnfsPerUser array (delete)\n\tfunction removeVnfHard(uint deploymentId, address owner) private {\n\t\tuint length = vnfs[owner].length;\n\n\t\tint index = -1;\n\n\t\tfor(uint i = 0; i < length; i++){\n\t\t\tif(vnfs[owner][i].deploymentId == deploymentId){\n\t\t\t\tindex = int(i);\n\t\t\t\tbreak;\n\t\t\t}\n\t\t}\n\n\t\tif(index < 0){ // if the specified id is not found, abort\n\t\t\treturn;\n\t\t}\n\n\t\tuint indexToDelete = uint(index); // this cast is safe, as we checked for >= 0 before\n\n\t\tvnfs[owner][indexToDelete] = vnfs[owner][length-1];\n\n\t\tdelete vnfs[owner][length-1];\n\t}\n\n}\n",
  "sourcePath": "/Users/PascalUZH/Documents/Studium/00-Git-Repos/MasterprojektArbeit/00 - actual/bcv-contract/src/contracts/VNFDeployment.sol",
  "compiler": {
    "name": "solc",
    "version": "0.6.12+commit.27d51765.Emscripten.clang"
  },
  "schemaVersion": "3.0.23",
  "updatedAt": "2022-02-12T11:08:38.214Z",
  "networkType": "ethereum",
  "devdoc": {
    "events": {
      "DeleteVNF(address,uint256,string)": {
        "params": {
          "creator": "address of the user triggering the VNF deletion.",
          "deploymentId": "VNF identifier as specified in this contract.",
          "vnfId": "VNF identifier as specified by the backend."
        }
      },
      "DeletionStatus(uint256,address,bool)": {
        "params": {
          "deploymentId": "VNF identifier as specified in this contract.",
          "success": "Indicates whether the deletion of the VNF was successful.",
          "user": "User owning the VNF"
        }
      },
      "DeployVNF(address,uint256,string,string)": {
        "params": {
          "creator": "address of the user triggering the VNF deployment",
          "deploymentId": "VNF identifier as specified in this contract.",
          "parameters": "instantiation parameters according to the VNFD.",
          "vnfdId": "identifier of the VNF descriptor (VNFD), which is the template to be used to create a VNF instance (obtained from tacker)."
        }
      },
      "DeploymentStatus(uint256,address,bool,string)": {
        "params": {
          "deploymentId": "VNF identifier as specified in this contract.",
          "success": "Indicates whether the creation of a VNF was successful.",
          "user": "User owning the VNF",
          "vnfId": "VNF identifier specified by the backend."
        }
      },
      "Register(address,string)": {
        "params": {
          "signedAddress": "signature of the user's address, must be checked by the backend",
          "user": "address of the user to be registered."
        }
      },
      "RegistrationStatus(address,bool)": {
        "params": {
          "success": "Indicates whether the registration of the user was successful.",
          "user": "address of the user that has been registered."
        }
      },
      "Unregister(address)": {
        "params": {
          "user": "address of the registered user."
        }
      },
      "UnregistrationStatus(address,bool)": {
        "params": {
          "success": "Indicates whether the unregistration of the user was successful.",
          "user": "address of the user that has been unregistered."
        }
      }
    },
    "kind": "dev",
    "methods": {
      "deleteVNF(uint256)": {
        "params": {
          "deploymentId": "identifier of the VNF instance to be terminated."
        }
      },
      "deployVNF(string,string)": {
        "params": {
          "parameters": "instantiation parameters according to the VNFD template.",
          "vnfdId": "identifier of the VNF descriptor (VNFD), which is the template to be used to create a VNF instance."
        }
      },
      "registerBackend(address)": {
        "params": {
          "backendAddress": "Account address of the backend"
        }
      },
      "registerUser(string)": {
        "params": {
          "signedAddress": "signature of the user's address"
        }
      },
      "reportDeletion(uint256,address,bool)": {
        "params": {
          "deploymentId": "VNF identifier as specified in this contract.",
          "success": "Indicates whether the VNF was instantiated correctly.",
          "user": "User owning the VNF"
        }
      },
      "reportDeployment(uint256,address,bool,string)": {
        "params": {
          "deploymentId": "VNF identifier as specified in this contract.",
          "success": "Indicates whether the VNF was instantiated correctly.",
          "user": "User owning the VNF",
          "vnfId": "VNF identifier specified by the backend."
        }
      },
      "reportRegistration(address,bool)": {
        "params": {
          "success": "Indicates whether the user was registered correctly.",
          "user": "User to be registered."
        }
      },
      "reportUnregistration(address,bool)": {
        "params": {
          "success": "Indicates whether the user was unregistered correctly.",
          "user": "User to be unregistered"
        }
      }
    },
    "version": 1
  },
  "userdoc": {
    "kind": "user",
    "methods": {
      "getVnfs(address)": {
        "notice": "Returns all the VNFs of the calling user"
      },
      "registerBackend(address)": {
        "notice": "Allows the creator of this contract to register the backend account, which is needed for confirming VNF instantiation."
      }
    },
    "version": 1
  }
}